S0180000506561726C5F456E657267795F4D6F64652E7333373B
S113000000000420DD0100000902000009020000D4
S113001009020000090200000902000009020000B0
S113002009020000090200000902000009020000A0
S11300300902000009020000090200000902000090
S11300400902000009020000090200000902000080
S11300500902000009020000090200000902000070
S1130060090200003D3B0000090200001D350000AC
S11300700902000009020000090200000902000050
S113008009020000D1410000090200000902000039
S11300900902000009020000AD4500000902000049
S11300A0090200000902000009020000894400005E
S11300B00902000009020000090200000902000010
S11300C005390000090200000902000009020000CD
S11300D009020000090200000902000009020000F0
S11300E009020000090200000902000009020000E0
S11300F009020000090200000902000009020000D0
S113010009020000090200000902000010B5054CB4
S1130110237833B9044B13B10448AFF300800123AF
S1130120237010BD8400002000000000345500003E
S1130130084B10B51BB108480849AFF300800848C4
S1130140036803B910BD074B002BFBD0BDE810407A
S1130150184700BF0000000034550000880000204C
S11301608000002000000000154B002B08BF134B3B
S11301709D46A3F5803A00218B460F461348144A46
S1130180121A05F081F90F4B002B00D098470E4B43
S1130190002B00D098470020002104000D000D48DA
S11301A0002802D00C48AFF3008005F047F9200086
S11301B0290004F023FB05F02DF900BF000008001E
S11301C00000042000000000000000008400002063
S11301D040010020000000000000000006488047A5
S11301E00649074A074B9A42BEBF51F8040B42F82E
S11301F0040BF8E7FFF7B8FFED02000040550000DC
S11302000000002084000020FEE700BF80B582B01B
S113021000AF00F027F878600A4BD3F808210A4BA6
S113022013401B0A3B603B6801337A68B2FBF3F36B
S11302307B60064A7B6813607B6818460837BD46B6
S113024080BD00BF00400E4000FF010008000020F8
S113025080B400AF024B1846BD465DF8047B70477E
S1130260005A620280B483B000AF164BD3F89430C6
S113027003F00703032B08D0042B02D0022B08D071
S11302800BE0114B1B687B600BE04FF400437B6079
S113029007E00E4B1B687B6003E00D4B1B687B6023
S11302A000BF084BD3F8003103F4F8531B0A0133A1
S11302B07A68B2FBF3F318460C37BD465DF8047B4D
S11302C0704700BF00400E400400002000000020E2
S11302D00C00002080B400AF034B1B681846BD46D9
S11302E05DF8047B704700BF0000002080B400AFBD
S11302F0074B084A9A60064A054BD3F8883043F402
S11303007003C2F88830BD465DF8047B704700BFB7
S113031000ED00E00000000080B400AF4FF40043A3
S11303201846BD465DF8047B704700BF80B400AF3B
S11303304FF47A731846BD465DF8047B704700BFDE
S113034080B400AF034B1B681846BD465DF8047BC0
S1130350704700BF0400002080B487B000AFF8608D
S1130360B9607A60FB6803F10473DA00BB68134474
S11303709B007B617B697A681A601C37BD465DF817
S1130380047B704780B485B000AF786039607B68C7
S113039003F1C063FB60FB683A681A601437BD461A
S11303A05DF8047B704700BF80B485B000AF78600F
S11303B039607B6803F18063FB60FB683A681A600C
S11303C01437BD465DF8047B704700BF80B584B028
S11303D000AFF860B9607A60F868B968FFF7E4FFC5
S11303E0F8687968FFF7CEFF1037BD4680BD00BFBF
S11303F080B582B000AF786039607B68B3F1804F1C
S113040003D07B68194A934200D100BF3B681B7834
S1130410DB071A463B685B681B06134343F4004240
S11304207B681A603B68DB681B043A68127A1A43DB
S11304307B689A623B681B691B043A68527A1A43C8
S11304407B68DA623B689B7A1B0743F0806343F462
S11304507D437A6853607A683B681B7D10460021AF
S11304601A46FFF779FF0837BD4680BD00040040F7
S113047080B582B000AF78600B46FB707B68B3F147
S1130480804F03D07B68074A934200D100BF7B684A
S11304901A1DFB781046FF211A46FFF797FF08370D
S11304A0BD4680BD0004004080B483B000AF7860D6
S11304B07B68B3F1804F03D07B68074A934200D135
S11304C000BF7B681B6823F001027B681A600C374D
S11304D0BD465DF8047B70470004004080B483B0DF
S11304E000AF78607B68B3F1804F03D07B68074A24
S11304F0934200D100BF7B681B6843F001027B6814
S11305001A600C37BD465DF8047B70470004004058
S113051080B487B000AFF860B9607A60FB6803F11B
S11305200473DA00BB6813449B007B617B697A68BF
S11305301A601C37BD465DF8047B704780B485B0F3
S113054000AF786039607B6803F10473DA003B68BC
S113055013449B00FB60FB681B6818461437BD46B8
S11305605DF8047B704700BF80B483B000AF78604F
S11305707B68012202FA03F318460C37BD465DF886
S1130580047B704780B584B000AF78607B6801332A
S1130590B3FA83F3DBB2C3F11F03FB60F868FFF720
S11305A0E3FFFB6818461037BD4680BD80B500AF39
S11305B000BF04481221FFF7C1FF0346002BF8D106
S11305C080BD00BF04300E4080B500AFFFF7EEFFE2
S11305D0034B5B6803F440331B0CDBB2184680BD4D
S11305E000300E4080B584B000AF78600123FB601A
S11305F07B68124A934204D80023FB600023BB604B
S113060008E07B680E4A934202D80123BB6001E0F4
S11306100223BB600B481021FA68FFF779FF0949F0
S1130620084BD3F8003123F08072BB681B061343D8
S1130630C1F800311037BD4680BD00BF0048E80155
S11306400090D00300400E4080B483B000AF054B4F
S11306501B687B607B6818460C37BD465DF8047BDD
S1130660704700BF1000002080B582B000AFFFF7D4
S1130670F9FD7860064BD3F8003103F4F8531B0AF4
S113068001337A6802FB03F318460837BD4680BD80
S113069000400E4080B582B000AF0D4800F058FC19
S11306A00346FB70FB78072B05D0092B07D1FFF716
S11306B0D9FD786006E0FFF7C7FF786002E0002309
S11306C07B6000BF7B6818460837BD4680BD00BF0D
S11306D006000E0080B584B000AF78607B68002B04
S11306E01CD11B4800F034FC0346FB7200BFFB7AAC
S11306F0013B072B23D801A252F823F02107000065
S11307003F0700003F0700002F0700003F070000DD
S11307103F0700002707000037070000002312E00E
S11307200023FB600EE0FFF78FFFF8600AE0FFF79D
S1130730D1FDF86006E0FFF797FFF86002E00023C0
S1130740FB6000BFFB6818461037BD4680BD00BF84
S1130750B800320080B485B000AF786039601D4BBA
S11307605B6803F04073FB600023BB6013E01A4A2C
S1130770BB68DB0013441A793B68DBB29A4207D1A9
S1130780154ABB6852F833207B689A4200D305E0CF
S1130790BB680133BB60BB68042BE8D9BB68052B7D
S11307A002D10323FB6005E00B4ABB68DB00134462
S11307B05B79FB60FB681B06FB600649054B5B68C5
S11307C023F04072FB6813434B601437BD465DF859
S11307D0047B704700000E40C454000080B582B012
S11307E000AF0D4B1B6C002B14BF01230023FB71C6
S11307F0094B41F671321A64FFF72AFD0346184685
S11308000021FFF7A7FFFB79002B02D0024B002247
S11308101A640837BD4680BD00000E4080B584B020
S113082000AF786039600C4B1B6C002B14BF0123A4
S11308300023FB73084B41F671321A6478683968F7
S1130840FFF788FFFB7B002B02D0034B00221A64C6
S11308501037BD4680BD00BF00000E4080B487B095
S113086000AF78600F237B617B6803333B617B6956
S1130870FB60FA683B69934228BF1346BB60BB68C0
S11308801B07BB60BB6818461C37BD465DF8047B7C
S1130890704700BF80B400AF044B5B6A03F03003C1
S11308A01B091846BD465DF8047B704700400E40A6
S11308B080B483B000AF78600649064B5B6A23F0CE
S11308C030027B681B0113434B620C37BD465DF855
S11308D0047B704700400E4090B585B000AF78604F
S11308E00023BB607B68354A934206D0344A934266
S11308F003D0344A934200D000E000BF786800F08F
S113090027FB0346FB607B682C4A93420DD02C4A9C
S1130910934211D02B4A934200D014E02A4BD3F8CF
S1130920803003F00703FB600DE0274BD3F88430DD
S113093003F00703FB6006E0234BD3F8883003F091
S11309400703FB6000BFFB68042B2ED801A252F8FA
S113095023F000BFA5090000690900007109000027
S11309608109000079090000FFF7D6FCB8601FE098
S1130970FFF7E6FCB8601BE0FFF7D8FCB86017E0AF
S1130980FFF744FC0446104BD3F8003103F08073A6
S11309901B0E01331846FFF7E7FD0346B4FBF3F3E0
S11309A0BB6005E00023BB6002E00023BB6000BF26
S11309B0BB6818461437BD4690BD00BF0300200035
S11309C00500240002001E0000400E4080B483B0E5
S11309D000AF78600A4BD3F8443103F00103002BD5
S11309E000D007E000BF064BD3F840217B681340DA
S11309F0002BF8D10C37BD465DF8047B704700BF6F
S1130A0000400E4080B400AFBD465DF8047B7047E3
S1130A1080B400AFBD465DF8047B704780B586B0F6
S1130A2000AF78600B46FB7000233B617B681B0AB8
S1130A3003F00F03013B092B44D801A252F823F021
S1130A40690A0000750A0000C50A0000C50A000012
S1130A506F0A00007B0A0000850A0000C50A000036
S1130A608F0A00009B0A0000184B7B6118E0184BAA
S1130A707B6115E0174B7B6112E0174B7B6101230F
S1130A803B610DE0154B7B6110233B6108E0144B87
S1130A907B614FF480333B6102E0124B7B6100BF0A
S1130AA07B681B0B03F01F03FB603B69002B02D028
S1130AB03869FFF78BFFFB787869F9681A46FFF706
S1130AC027FD00E000BF1837BD4680BD00400E4042
S1130AD0B0400E40C0400E40E0400E40E8400E40A2
S1130AE0F0400E4050410E4080B584B000AF7860B5
S1130AF07B6803F47813B3F5A01F7DD0B3F5A01F72
S1130B001AD8B3F5202F50D0B3F5202F08D8B3F559
S1130B10003F4ED0B3F5802F38D0002B32D0D8E030
S1130B20B3F5602F00F0C880B3F5801F00F0C880D3
S1130B30B3F5402F4CD0CCE0B3F5001F00F08B8010
S1130B40B3F5001F0AD8B3F5D01F00F08980B3F5C0
S1130B50F01F4CD0B3F5B01F5CD0BAE0B3F5381F2A
S1130B606AD0B3F5381F04D8B3F5101F00F09F8086
S1130B70AFE0B3F5401F00F08680B3F5481F00F0E6
S1130B80A380A6E0FFF76EFBF860A5E0FFF76AFB21
S1130B90F860544BD3F80C21534B13401B0A013318
S1130BA0FA68B2FBF3F3FB6096E0FFF75BFBF860D7
S1130BB092E0FFF757FBF8604A4BD3F808214A4B01
S1130BC013401B0A0133FA68B2FBF3F3FB6083E0C2
S1130BD0FFF748FBF860434BD3F8143103F4F853A0
S1130BE01B0A0133FA68B2FBF3F3FB6074E03F487D
S1130BF0FFF772FEF8606FE03D48FFF76DFEF860A6
S1130C00384BD3F8303103F003031A46FB68D34062
S1130C10FB6061E03548FFF75FFEF860314BD3F8C5
S1130C20203103F00F031846FFF79EFC0246FB68D1
S1130C30B3FBF2F3FB604FE02C48FFF74DFEF86086
S1130C40284BD3F8203103F030031B091A46FB6804
S1130C50D340FB6040E02748FFF73EFEF8603BE0EE
S1130C602448FFF739FEF8601E4BD3F8283103F00F
S1130C7030031B091846FFF777FC0246FB68B3FBF9
S1130C80F2F3FB6028E01B48FFF726FEF860154BE3
S1130C90D3F8283103F440731B0A04331846FFF7D2
S1130CA063FC0246FB68B3FBF2F3FB6014E01048FC
S1130CB0FFF712FEF8600FE0FFF7ECFCF8600BE0C2
S1130CC0FFF7C2FCF86007E00020FFF703FDF860BF
S1130CD002E00023FB6000BFFB6818461037BD46E6
S1130CE080BD00BF00400E4000FF010002001E0056
S1130CF0050024000300200080B584B000AF7860B4
S1130D0039607B681B0903F00F03FB60FB68013B40
S1130D10092B00F2088101A252F823F0450D0000CE
S1130D20910D0000270F0000A90D0000270F0000FF
S1130D30270F0000C50D00000D0E00008D0E0000F1
S1130D40FD0E0000FFF74AFD7948FFF74BFCFFF763
S1130D5059FE7849774BD3F8003123F4F8523B68B5
S1130D601B021343C1F80031FFF750FAB860FFF7D4
S1130D702BFC0346B8681946FFF750FD6E48FFF791
S1130D80B3FE03461846FFF72DFCFFF741FECBE008
S1130D906849684BD3F8143123F4F8523B681B02BA
S1130DA01343C1F81431BFE06249624BD3F80C31EC
S1130DB023F4FF3323F480733A6812021343C1F817
S1130DC00C31B1E0FFF70AFD5948FFF70BFC594914
S1130DD0584BD3F8083123F4FF3323F480733A6873
S1130DE012021343C1F80831FFF710FAB860FFF795
S1130DF0EBFB0346B8681946FFF710FD4E48FFF7B2
S1130E0073FE03461846FFF7EDFB8DE07B684B4A03
S1130E10934215D04A4A934224D04A4A934200D07E
S1130E2033E04FF48020FFF7D1FD4249414BD3F822
S1130E30303123F003023B681343C1F8303124E01E
S1130E403868FFF79FFB38600420FFF7BFFD39497E
S1130E50384BD3F8203123F00F023B681343C1F819
S1130E60203112E03868FFF78DFB38600420FFF76B
S1130E70ADFD30492F4BD3F8203123F030023B68CD
S1130E801B011343C1F8203100BF4DE07B682E4A9B
S1130E90934203D02D4A934213D02EE03868FFF7D3
S1130EA071FB38604020FFF791FD2249214BD3F8B4
S1130EB0283123F030023B681B011343C1F8283169
S1130EC01BE03B687F2B03D83B680E2B00D900BF87
S1130ED03868FFF757FB0346043B3B604020FFF7AD
S1130EE075FD1449134BD3F8283123F440723B6841
S1130EF01B021343C1F8283100BF15E07B68114A77
S1130F00934200D00EE04FF48020FFF75FFD0949C3
S1130F10084BD3F8303123F003023B681343C1F884
S1130F20303100BF00E000BF1037BD4680BD00BFB8
S1130F300148E80100400E4000250A008006160022
S1130F4080162E00A009140090171A009027300074
S1130F5080B485B000AF78600123FB737B6803F035
S1130F600F03BB60BB68013B072B00F2C48001A2E6
S1130F7052F823F0950F0000EB0F00001B10000047
S1130F80F71000006110000091100000F71000003D
S1130F90B51000005D4BD3F8943003F00703023B17
S1130FA0052B1ED801A252F823F000BFD10F000078
S1130FB0CB0F0000C50F0000D70F0000E30F0000A7
S1130FC0DD0F00000223FB730EE00323FB730BE031
S1130FD00423FB7308E00B23FB7305E00C23FB7372
S1130FE002E00523FB7300BF88E0484BD3F8803050
S1130FF003F00703022B06D0042B07D0012B08D1E2
S11310000323FB7308E00223FB7305E00A23FB734D
S113101002E00123FB7300BF70E03C4BD3F8843043
S113102003F00703013B032B16D801A252F823F067
S11310304110000047100000531000004D10000044
S11310400323FB730BE00223FB7308E00A23FB7307
S113105005E00623FB7302E00123FB7300BF4DE0B0
S11310602A4BD3F8883003F00703022B06D0042B55
S113107007D0012B08D10323FB7308E00223FB7381
S113108005E00A23FB7302E00123FB7300BF35E094
S11310901E4B1B6F03F00103002B04D0012B05D161
S11310A00923FB7305E00723FB7302E00123FB73B1
S11310B000BF23E0154BD3F85C3103F03003102B51
S11310C00CD0102B02D8002B05D010E0202B08D018
S11310D0302B09D00BE00123FB730BE00723FB73D8
S11310E008E00423FB7305E00823FB7302E00123FB
S11310F0FB7300BF02E00023FB7300BFFB7B1846B9
S11311001437BD465DF8047B704700BF00400E40B5
S113111080B58AB000AF78600B46FB7003237B6216
S1131120032387F823300023BB6100237B617B68A2
S1131130112B19D1FB78042B03D1FFF7CBF878617D
S11311400BE0FB78052B08D100F05AF90246A44BBA
S11311509A4202D900F054F978617B69002B03D0DC
S11311607869002100F080FE7B6803F00F033B6187
S11311703B69013B072B00F2298101A252F823F0BD
S1131180A111000095120000A7120000CD13000069
S1131190991200003D130000CD1300005B13000002
S11311A0FB78023B0A2B00F2138101A252F823F0D0
S11311B0DD110000E9110000F51100000712000024
S11311C0D1130000D1130000D1130000D11300008B
S11311D0D1130000191200002512000004237B62C1
S11311E0002387F8233023E003237B62012387F85D
S11311F023301DE002237B62022387F823307948E1
S1131200FFF7F0F914E001237B62032387F823300E
S11312107448FFF7E7F90BE005237B62032387F8A3
S1131220233005E007237B62062387F8233000BFC1
S113123097F82330062B06D097F82330184601215F
S1131240012200F0B3F9FFF7C9FAFFF7DBFB7B6972
S1131250002B01D0FFF7AAF9634A7B6A53676348FE
S1131260FFF742FC03461846FFF7BCF9FEF7CEFF32
S1131270F860FFF7A9F90346F8681946FFF7CEFAB4
S11312807B69002B03D10020012100F0EDFDFFF765
S1131290BFFBA2E0564BBB61BB69002B01D0BB690D
S11312A000E0544BBB61BB69002B01D0BB6900E07B
S11312B0514BBB61FB78013B092B00F28B8001A2EF
S11312C052F823F0ED120000F312000003130000A3
S11312D0D5130000D513000013130000D51300002C
S11312E0D5130000D51300002F1300000023FB6169
S11312F020E000200121012200F058F90223FB61C3
S113130018E001200121012200F050F90123FB61C2
S113131010E0FEF77BFF03461846FFF763F93748F2
S113132002210122FFF7F4F80323FB6102E0042306
S1131330FB6100BFBB69FA691A604EE0FB78072BBA
S113134002D0092B04D048E0274B00221A6703E09F
S1131350254B01221A6700BF3FE0FB78013B072BB6
S11313603AD801A252F823F089130000D9130000DF
S1131370D91300009F130000D9130000D9130000F3
S11313808F130000AF1300000023FB6112E0042060
S11313900121012200F00AF90123FB610AE0022085
S11313A00121012200F002F90223FB6102E0032380
S11313B0FB6100BF0C490C4BD3F85C3123F03002C5
S11313C0FB691B011343C1F85C3106E000BF04E074
S11313D000BF02E000BF00E000BF2837BD4680BD6B
S11313E0002D31010148E80100400E4000250A00AB
S11313F080400E4088400E4084400E40B0400E4075
S113140080B400AF034B1B681846BD465DF8047BEF
S1131410704700BF0C00002080B584B000AF786036
S11314200B46FB701346BB70BB78002B01D0244BDA
S11314301B6800237B60234B5A6A7B6843F040534C
S1131440DB431340FB60FB78002B02D04FF080524B
S113145000E000227B681A43BB78002B02D04FF0D7
S1131460005300E000231343FA681343FB60FEF7C4
S113147031FFB860B868012100F0F6FC7B68002BEE
S113148002D1BB78002B09D0FFF79EF80346B86859
S11314901946FFF7C3F9B868FFF7A4F8FB78002BE7
S11314A002D1BB78002B04D002200121012200F0DC
S11314B07DF8044AFB6853621037BD4680BD00BF07
S11314C000300E4000400E40B0B584B000AF7860EC
S11314D01120FFF73DFD02200021012200F066F8F3
S11314E07B685B7883F00103DBB2002B0ED07B6852
S11314F09B7883F00103DBB2002B07D07B68DB7899
S113150083F00103DBB2002B00D000BF0023FB609B
S11315107B681B7C022B01D10123FB602149214BF9
S11315205B6A23F00102FB6813434B627B681B7800
S11315301D4808211A46FEF7EBFF1A497B689B8871
S1131540DB027A68527A1343CB62164D154B1B6B40
S113155003F07F627B68DB88DB0213437A68927A4C
S11315601A437B681B7ADB0142EA03047B681B7A1B
S11315701846FFF773F9034623432B6309497B6835
S11315805B7B1A037B689B7B1B0113437A68D27BCA
S11315901A437B681B7B1B0413434B631037BD4604
S11315A0B0BD00BF00400E4024400E4080B588B05E
S11315B000AF0346FB710B46BB7113467B71FB798D
S11315C0042B00F2B88001A252F823F0291600007F
S11315D017160000F3150000E115000005160000C1
S11315E001237B6102233B610123FB610023BB6177
S11315F025E004237B6108233B610323FB61022371
S1131600BB611CE010237B6120233B610523FB614C
S11316100423BB6113E040237B6180233B610723E8
S1131620FB610623BB610AE04FF480737B614FF4D6
S113163000733B610923FB610823BB6100BFBB79D5
S1131640002B5BD00023FB73FB79022B11D1FFF736
S113165021F90346002B0CD1394BDB6B0123FB73BF
S1131660384B5B6A03F00103002B02D00120FFF723
S11316701FF9344A7B69136600BF3348B969FEF722
S11316805DFF0346002BF8D07B79002B35D000BFDB
S11316902D48F969FEF752FF0346002BF8D0FB7979
S11316A0022B2AD1FB7B002B27D0264B5B6A03F04D
S11316B00103002B05D002202021012200F04AF969
S11316C003E00220002100F0FBF8022000F03EF8C5
S11316D0B860022000210122FFF768FF0220B968E8
S11316E000F06EF8174A7B69136600BF1648F96963
S11316F0FEF724FF0346002BF8D01DE0114A3B6996
S1131700136600BF0F4BD3F89030BA69012101FA78
S113171002F21340002BF5D17B79002B0CD000BFD3
S1131720084BD3F89030FA69012101FA02F2134010
S1131730002BF5D100E000BF2037BD4680BD00BFBF
S113174000300E4000400E4090400E4080B485B002
S113175000AF0346FB71FB79013B032B23D801A2A5
S113176052F823F075170000991700008117000044
S11317708D170000114B1B6AC3F30803FB6015E0CF
S11317800E4B1B6903F07F03FB600FE00B4B9B695F
S113179003F07F03FB6009E0084BD3F89C30C3F3EC
S11317A00A03FB6002E00023FB6000BFFB681846ED
S11317B01437BD465DF8047B704700BF00400E40FF
S11317C080B584B000AF03463960FB71FB79013BFF
S11317D0032B6AD801A252F823F000BFED170000D2
S11317E06F1800001B180000451800003B68C3F385
S11317F008033B6000BF2F481A21FEF79FFE0346F3
S1131800002BF8D12C492C4B1B6A23F4FF7323F0D3
S113181001033A6813430B6248E03B6803F07F031B
S11318203B6000BF23481821FEF788FE0346002BC7
S1131830F8D12149204B1B6923F07F023B681343F5
S11318400B6133E03B6803F07F033B6000BF194842
S11318501921FEF773FE0346002BF8D11649164BE7
S11318609B6923F07F023B6813438B611EE0124B9C
S1131870D3F89030104A104B5B6A23F0300343F0E6
S1131880100353623B6803F4F063DB091846FEF768
S1131890E5FFF8600849084B1A6B084B13403A6897
S11318A01A43FB6813430B6300E000BF1037BD46C7
S11318B080BD00BF40410E4000400E4000F8FF0FC5
S11318C080B584B000AF03460A46FB711346BB7172
S11318D0FEF7E0FF0346002B03D14FF44003FB6007
S11318E016E0BB79202B04D0302B0AD0002B04D077
S11318F00BE04FF40003FB600AE04FF44003FB608D
S113190006E04FF44003FB6002E0104BFB6000BFB5
S113191000BF0F4BD3F89020FB681A40FB689A4233
S1131920F7D1FB6803F48003002B0AD0084BD3F8EB
S1131930A03003F48063002B14BF01230023DBB227
S113194000E0012318461037BD4680BDFF33E10790
S113195000400E4080B582B000AF0346FB710B46D9
S1131960BB7113467B71FB79022B00D016E0BB7967
S1131970002B07D00C4B4FF48062C3F8A8200A4A0E
S1131980BB7953667B79002B07D0FA79BB79104673
S11319901946FFF795FF034601E000BF01231846EF
S11319A00837BD4680BD00BF00400E4080B400AF84
S11319B072B6BD465DF8047B704700BF80B400AFCB
S11319C062B6BD465DF8047B704700BF80B483B047
S11319D000AFEFF310833B603B687B6072B67B68BB
S11319E018460C37BD465DF8047B704780B483B05D
S11319F000AF78607B68002B00D162B60C37BD461F
S1131A005DF8047B704700BF80B487B000AFF86016
S1131A10B9607A60FB6803F10473DA00BB681344AD
S1131A209B007B617B697A681A601C37BD465DF850
S1131A30047B704780B582B000AF0346FB71FB792D
S1131A40034800211A46FFF7DFFF0837BD4680BD73
S1131A500CE0014080B582B000AF7860134A7B6827
S1131A605B7903F03F03536010497B681B78002BBC
S1131A7001D0012200E000227B685B78002B01D0BA
S1131A80022300E000231A437B68DB789B001A439F
S1131A907B681B795B0113430B607B689B7818465A
S1131AA0FFF7C8FF0837BD4680BD00BF00E0014016
S1131AB080B500AFFEF7AAFB80BD00BF80B487B03D
S1131AC000AFF860B9607A60FB6803F10473DA0070
S1131AD0BB6813449B007B617B697A681A601C377E
S1131AE0BD465DF8047B704780B485B000AF786074
S1131AF039607B6803F10473DA003B6813449B008C
S1131B00FB60FB681B6818461437BD465DF8047B10
S1131B10704700BF80B500AF00BF04481221FFF733
S1131B20E3FF0346002BF8D180BD00BF04300E4014
S1131B3080B500AFFFF7EEFF034B5B6803F440335F
S1131B401B0CDBB2184680BD00300E4080B483B05D
S1131B5000AF7860034A7B68D3620C37BD465DF8FA
S1131B60047B704700300E4080B400AF034B5B6AC7
S1131B701846BD465DF8047B704700BF00300E4038
S1131B8080B400AF034B0022C3F88021BD465DF84A
S1131B90047B704700400E4080B400AF044B45F610
S1131BA00E02C3F88021BD465DF8047B704700BF78
S1131BB000400E4080B483B000AF0346FB71FB7954
S1131BC0C3F102031A461023934018460C37BD464E
S1131BD05DF8047B704700BF90B585B000AF034645
S1131BE0FB71FB79002B1AD1474BD3F89030474A4D
S1131BF013601120FFF7ACF903461A46444B1A70E0
S1131C00FFF788FF434B5B6803F440331B0CDAB2E5
S1131C10414B1A703C4B1B69404A136070E03D4CC9
S1131C203D4B1B781846FFF7C5FF03462361364B2F
S1131C30D3F8803103F00103FB60FFF7ADFF00230D
S1131C40BB60324B1B6803F00103BA681343BB60EB
S1131C502E4B1B6803F01003BA681343BB602B4B75
S1131C601B6803F04003BA681343BB60274B1B682F
S1131C7003F00403BA681343BB60244B1B6803F4EA
S1131C808073BA681343BB601F4ABB681366FFF7CF
S1131C9041FF204B1B6803F01003002B18D000BF3A
S1131CA0194BD3F8403103F08073002BF8D1164A56
S1131CB01A4B1B681361164B1B78052B08D1184B64
S1131CC01C68FFF735FF034620461946FEF7A6FDBC
S1131CD00F4B1B78052B05D00D4B1B781120194693
S1131CE0FFF716FA094B1B6803F00103002B02D11E
S1131CF0054B02221A66FB68002B01D0FFF740FF58
S1131D001437BD4690BD00BF00400E40AC0000201B
S1131D10B000002000300E40B1000020B4000020CC
S1131D200C00002080B582B000AFFFF7F3FE104B2B
S1131D301B6803F440731B0A7B600D4B5B6803F460
S1131D4040331B0C3B607A683B689A4206D9084AC8
S1131D50074B1B6843F01003136005E0044A044B6F
S1131D601B6823F0100313600837BD4680BD00BF15
S1131D7000300E4080B483B000AF0B4B1B6803F0FF
S1131D801003002B0BD0094B1B6903F4F8131B0C35
S1131D907B607B68082B02D1054B064A1A600C371E
S1131DA0BD465DF8047B704700300E4000400E4095
S1131DB00C000020C0EA210180B582B000AF0346C8
S1131DC0FB71FB79002B02D00020FFF705FFFFF722
S1131DD0A9FF0A4A094B1B6943F00403136130BF8E
S1131DE0FB79002B03D00120FFF7F6FE03E0FFF799
S1131DF0C1FFFFF75DFE0837BD4680BD00ED00E082
S1131E0080B584B000AF0346FB71FB79002B02D090
S1131E100020FFF7E1FEFFF785FF114BD3F8803177
S1131E2003F00103FB60FFF7B7FEFB68002B01D052
S1131E30FFF7A6FE0B4A0B4B1B6943F00403136127
S1131E4030BFFB79002B03D00120FFF7C5FE03E070
S1131E50FFF790FFFFF72CFE1037BD4680BD00BF93
S1131E6000400E4000ED00E080B584B000AF786023
S1131E700B46FB70154BD3F8003103F4F8531B0ADF
S1131E800133BB607B68002B07D1FEF7EBF90246F8
S1131E90BB6803FB02F3FB6001E07B68FB600C4B57
S1131EA01B78002B09D0FB680A4A934205D8FB78BB
S1131EB00220194600F010F804E0FB7800201946CF
S1131EC000F00AF81037BD4680BD00BF00400E4048
S1131ED0A8000020FF2C310190B587B000AF034665
S1131EE00A46FB711346BB711A4BD3F8003103F455
S1131EF0F8531B0A01337B61FEF7B4F93861FFF72D
S1131F0017FE0346FB73FA7BFB799A4200D11EE06D
S1131F103B697A6902FB03F3BB60FB79022B03D1B3
S1131F2038690221FEF77AFC0B4CFB791846FFF75F
S1131F3041FE03462361BB79002B01D0FFF7EAFD84
S1131F40FB79002B03D138690021FEF767FC1C37AD
S1131F50BD4690BD00400E4000300E4080B483B0BA
S1131F6000AF78600A490A4B1B6823F440727B680F
S1131F705B781B0213430B607B685B78022B01D1F7
S1131F80044B5B6A0C37BD465DF8047B704700BFA9
S1131F9000300E4000400E4080B400AF01231846CC
S1131FA0BD465DF8047B704780B582B000AF0C4A33
S1131FB00B4BDB6E43F08073D3660A480021FFF7B6
S1131FC093FD78607B68002B03D0042000F0B4FC00
S1131FD002E0002000F0B0FC0837BD4680BD00BF21
S1131FE000300E404C300E4080B48BB000AF012363
S1131FF07B627B6A1B053B62314BDB6C03F47063D1
S11320001B0AFB612F4B1B881A462E4B1B88283357
S11320105B08134403F12801FB695A1C13469B0017
S11320201344B1FBF3F3013BBB61BB697B61072341
S11320303B613A697B69934228BF1346BB61BB6924
S11320401B06BB611E481E4BDB6C23F0EE62B969B4
S11320503B6A0B431343C3641B4B1B881BB2002B0B
S113206028DB194B1B88FB81FA89FB8928335B0821
S1132070134403F12802FB6901335900FB6901335E
S11320805B080B44B2FBF3F3BB60BB687B600723C4
S11320903B603A687B68934228BF1346BB60BB68C9
S11320A01B01BB600649064B1B6D23F07002BB6825
S11320B013430B652C37BD465DF8047B704700BFA6
S11320C000300E40A0000020A400002080B483B0A3
S11320D000AF78600B467B807B689AB2044B1A8011
S11320E0044A7B8813800C37BD465DF8047B704737
S11320F0A0000020A400002080B483B000AF0346F9
S1132100FB71FB79002B02D0012B04D007E0064BB6
S1132110064A9A6503E0044B054A9A6500BF0C37EA
S1132120BD465DF8047B704700300E407740205771
S1132130372110B780B485B000AF0346FB710B465E
S1132140BB7113467B712E4BD3F88031FB60BB7996
S1132150032B1FD801A252F823F000BF6D21000009
S113216075210000812100008D210000FB68DBB295
S1132170FB6011E0FB6803F47F431B0AFB600BE088
S1132180FB6803F47F031B0CFB6005E0FB681B0E7C
S1132190FB6001E000232CE07B79002B11D1FB686C
S11321A01B03FB60FB6823F47043002B01D0002366
S11321B01FE01449134BDB6E23F47042FB68134396
S11321C0CB667B79012B13D1FB681B03FB60FB6897
S11321D023F47043002B01D000230AE00949094B82
S11321E0D3F8EC3023F47042FB681343C1F8EC30AD
S11321F0012318461437BD465DF8047B704700BFC1
S1132200B081E00F00300E4080B489B000AFF860B8
S1132210B96011461A460B46FB711346BB71002385
S1132220FB610023BB61BB791A02FB79002B01D04F
S1132230012300E0002313437B617B6940F2011218
S113224093422BD0B3F5817F07D2012B19D0012BF8
S11322504BD3B3F5807F55D07BE040F2012293420B
S113226029D040F20122934203D8B3F5007F56D01F
S11322706FE0B3F5407F5FD040F20132934227D044
S113228067E0394BD3F87431FB61FB6903F47F4396
S11322901B0ABB61FB69DBB2FB615AE0324BD3F82A
S11322A07431FB61FB691B0EBB61FB6903F47F03A3
S11322B01B0CFB614DE02C4BD3F87831FB61FB69BF
S11322C003F47F431B0ABB61FB69DBB2FB6140E0A3
S11322D0254BD3F87831FB61FB691B0EBB61FB69AD
S11322E003F47F031B0CFB6133E01F4BD3F86C3109
S11322F0FB61FB6903F47F431B0ABB61FB69DBB22F
S1132300FB6126E0184BD3F86C31FB61FB691B0EB3
S1132310BB61FB6903F47F031B0CFB6119E0124BE7
S1132320D3F87031FB61FB6903F47F431B0ABB6183
S1132330FB69DBB2FB610CE00B4BD3F87031FB6142
S1132340FB691B0EBB61FB6903F47F031B0CFB6180
S113235000BFFB68FA691A60BB68BA691A6024375F
S1132360BD465DF8047B7047B081E00F80B584B052
S113237000AF0346FB7100BF364B9B6F03F00103B4
S1132380002BF9D1334B1B6C03F00303FB60FB6898
S1132390002B04D030480D210122FFF78FFBFB688E
S11323A0DBB2FA799A4209D1FB79002B05D12A488C
S11323B00D210022FFF782FB48E047E0FB68032B76
S11323C002D0FB68002B20D1FB79022B02D0FB79D1
S11323D0012B1AD14FF40020FFF7B8FB00BF1D4BAF
S11323E09B6F03F00103002BF9D11A4A194B1B6CA4
S11323F023F0030343F00103136400BFFFF7B4FBAE
S1132400034603F40023002BF8D000BF114B9B6F4D
S113241003F00103002BF9D10E490E4B1B6C23F082
S11324200302FB7913430B6400BF0A4B9B6F03F059
S11324300103002BF9D1FB79002B14BF01230023E6
S1132440DBB205480D211A46FFF738FB1037BD46AD
S113245080BD00BF00300E4054300E4080B584B0C3
S113246000AF7860484B02229A63474B9B6B03F0A2
S11324700F03022B01D0002381E0FFF78DFD7B6861
S11324805B78012B02D07B685B78022B7B68DB884E
S11324904A2B02D80023FB6015E07B68DB88B3F588
S11324A0FA7F03D24FF08053FB600CE07B68DB883B
S11324B040F6C312934203D84FF00053FB6002E08E
S11324C04FF04053FB6030482F4BDB6C23F04053FC
S11324D023F001037A68928912B2002A01DB0121F8
S11324E000E00021FA680A431343C364264A264BDA
S11324F0D3F8EC3043F44073C2F8EC30FFF754FDEA
S11325007B681B891A467B689B891BB21046194657
S1132510FFF7DCFD7B689A881C4B1A807B689B88DC
S1132520184600F09DF97B689B7B1846FFF7E4FD95
S11325307B685B8818460121012200F02BF80346D2
S113254083F00103DBB2002B01D0002317E00E4A15
S11325500D4BDB6B43F48063D3637B685B78184675
S1132560FFF704FF7B689B7A202B01D1012300E055
S11325700023074805211A46FFF7A0FA012318464D
S11325801037BD4680BD00BF00300E40A2000020C1
S11325903C300E4090B595B000AF78600B46FB70B0
S11325A01346BB700023FB6400237B6407F1240300
S11325B000221A60043300221A60043300221A60D5
S11325C0043307F1180300221A60043300221A604E
S11325D0043300221A60043307F10C0300221A604A
S11325E0043300221A60043300221A6004330023E7
S11325F03B810023BB727B68B3F5E16F06D37B6834
S113260040F6B832934201D8012300E0002387F852
S1132610433097F8433003F0010387F8433097F8C9
S1132620433083F00103DBB2002B01D000230FE120
S11326307B68B3F5E16F8CBF0123002387F8423038
S113264097F84230002B0AD04FF4E163FB6440F664
S1132650B8337B647A6CFB6CD31ABB6409E04FF427
S11326609663FB644FF4E1637B647A6CFB6CD31A6E
S1132670BB6497F84230002B0CD0774BD3F8683109
S11326803B623B6A1B0E7B613B6A03F47F031B0CBA
S11326903B620BE0704BD3F868313B623B6A03F456
S11326A07F431B0A7B613B6ADBB23B626B4BDB6C97
S11326B003F040531B0FDBB23B723B7A07F1180067
S11326C007F10C0197F84220FFF79EFD634BD3F806
S11326D0EC3003F440731B0ADBB27B727C7A07F1A3
S11326E01803191D07F10C031A1D97F84230084608
S11326F011461A462346FFF787FD7A68FB6CD31A06
S113270079693A6A8A1A02FB03F2BB6CB2FBF3F3EF
S1132710FB62FA6A3B6A1344FB627A68FB6CD31A65
S1132720F968BA698A1A02FB03F2BB6CB2FBF3F3D1
S11327307B627A6ABB6913447B627A68FB6CD31A46
S11327403969FA698A1A02FB03F2BB6CB2FBF3F330
S1132750BB62BA6AFB691344BB62FA6A7B699A4238
S113276013D8FA6A3B6A9A420FD3BA6A3B699A420F
S11327700BD8BA6AFB699A4207D37A6AFB689A4211
S113278003D87A6ABB699A4201D2002360E0BB781D
S1132790002B12D03149314BDB6D23F4FE4323F07F
S11327A00203FA6A12021A4397F84230002B01D04E
S11327B0022300E000231343CB65FB78002B46D0B3
S11327C03B7A97F84220104619460022FFF7B2FCE4
S11327D0034683F00103DBB2002B01D0002337E072
S11327E07B7A97F84220104619460122FFF7A2FC93
S11327F0034683F00103DBB2002B01D0002327E062
S11328007B6AFB63BB6ABB63BA6BFB6B934238BFE7
S113281013467B627B6A7B63E7233B633A6B7B6B88
S1132820934228BF13467B620C490C4B5B6E23F426
S1132830FF7323F001037A6A52001A4397F8423077
S1132840002B01D0012300E0002313434B66012336
S113285018465437BD4690BDB081E00F00300E409D
S113286080B584B000AF78600023FB60314B1B6FF0
S113287003F00703BB602F4BDB6C03F00103002B59
S113288015D0BB68012B12D97B68132B02D8042303
S1132890FB600BE07B68132B05D97B68272B02D8E0
S11328A00823FB6002E01023FB602DE02CE0214BA9
S11328B0DB6C03F00103002B15D1BB68012B12D88C
S11328C07B68092B02D80423FB600BE07B68092B8F
S11328D005D97B68132B02D80823FB6002E0102380
S11328E0FB6011E010E0134BDB6C03F00103002BE1
S11328F00AD0BB68012B07D87B68272B02D8082392
S1132900FB6001E01023FB60FB68013BFB60FB689C
S11329101A02FB681B031343FB600649054BDB6C7F
S113292023F47F42FB681343CB64FFF75DFB10374E
S1132930BD4680BD00300E4080B584B000AF034674
S1132940FB710F480021FFF7CFF8F860FB68002BFC
S113295002D1FB79012B02D9FB68002B00D000BF08
S11329600849084B1B6F23F00702FB7913430B67DD
S1132970054B1B881846FFF773FF1037BD4680BD13
S11329804C300E4000300E40A200002080B485B0D0
S113299000AF786039607B6803F1C063FB60FB685B
S11329A03A681A601437BD465DF8047B704700BF6F
S11329B080B485B000AF786039607B6803F18063D0
S11329C0FB60FB683A681A601437BD465DF8047B07
S11329D0704700BF80B584B000AFF860B9607A601A
S11329E0F868B968FFF7E4FFF8687968FFF7CEFF85
S11329F01037BD4680BD00BF80B582B000AF03462E
S1132A003960FB71FB79002B1CD0FB79012B19D0A9
S1132A10FB79022B16D0FB79032B13D0FB79042B03
S1132A2010D0FB79052B0DD0FB79062B0AD0FB794E
S1132A30072B07D0FB79082B04D0FB79092B01D095
S1132A40FB790A2BFA7913465B0013441B010C3300
S1132A5003F1804303F520433A68012101FA02F2AD
S1132A6018461146FFF7A4FF0837BD4680BD00BFD6
S1132A7080B582B000AF03463960FB71FB79002B4F
S1132A801CD0FB79012B19D0FB79022B16D0FB79D2
S1132A90032B13D0FB79042B10D0FB79052B0DD01D
S1132AA0FB79062B0AD0FB79072B07D0FB79082B7F
S1132AB004D0FB79092B01D0FB790A2BFA79134650
S1132AC05B0013441B010C3303F1804303F52043E3
S1132AD03A68012101FA02F218461146FFF756FF3F
S1132AE00837BD4680BD00BF80B582B000AF034645
S1132AF03960FB71FB79002B1DD0FB79012B1AD0B7
S1132B00FB79022B17D0FB79032B14D0FB79042B10
S1132B1017D0FB79052B0ED0FB79062B11D0FB794E
S1132B20072B0ED0FB79082B05D0FB79092B02D09B
S1132B30FB790A2B05D13B6823F00113002B00D14C
S1132B4000BFFA7913465B0013441B0103F1804371
S1132B5003F5204318464FF001113A68FFF73AFF96
S1132B600837BD4680BD00BF90B585B000AFB960E1
S1132B707B600346FB731346BB73FB7B002B1CD0AB
S1132B80FB7B012B19D0FB7B022B16D0FB7B032B89
S1132B9013D0FB7B042B10D0FB7B052B0DD0FB7BD0
S1132BA0062B0AD0FB7B072B07D0FB7B082B04D01A
S1132BB0FB7B092B01D0FB7B0A2BBB7B002B0DD0AD
S1132BC07B68002B05D0FB7B1846B968FFF750FFE4
S1132BD004E0FB7B1846B968FFF70EFFBB68072BC0
S1132BE01CD82B4CFA7B2A48F97B0B465B000B4420
S1132BF01B0103445968BB689B0018460F2383409C
S1132C00DB430B40B97BB86880008140194313460D
S1132C105B0013441B012344596024E01C4CFA7BE1
S1132C201B48F97B0B465B000B441B010344083330
S1132C301968BB6803F18043083B9B0018460F23C7
S1132C408340DB431940B87BBB6803F18043083BF6
S1132C509B0000FA03F3194313465B0013441B0162
S1132C60234408331960BB7B002B0DD17B68002BF8
S1132C7005D0FB7B1846B968FFF7FAFE04E0FB7B3E
S1132C801846B968FFF7B8FE1437BD4690BD00BFBB
S1132C9000A0004080B483B000AF786039607B68E6
S1132CA03A68DA630C37BD465DF8047B704700BFB1
S1132CB080B487B000AFF860B9607A60FB6803F154
S1132CC00473DA00BB6813449B007B617B697A68F8
S1132CD01A601C37BD465DF8047B704780B485B02C
S1132CE000AF786039607B6803F1C063FB60FB6808
S1132CF03A681A601437BD465DF8047B704700BF1C
S1132D0080B485B000AF786039607B6803F180637C
S1132D10FB60FB683A681A601437BD465DF8047BB3
S1132D20704700BF80B584B000AFF860B9607A60C6
S1132D30F868B968FFF7E4FFF8687968FFF7CEFF31
S1132D401037BD4680BD00BF80B588B000AFF860C5
S1132D50B9607A60FB707B68002B00D179E0FB7866
S1132D6003F00303FB70FB681B6823F44072FB68E9
S1132D701A60FA68FB781B0210464FF440711A4639
S1132D80FFF7D0FFBB68002B10D1FB68324A934297
S1132D9004D13248FDF7A8FEB86007E0FB68304A6A
S1132DA0934203D12F48FDF79FFEB8604FF0FF33E5
S1132DB0BB61FB681B6803F00203002B11D0FB7896
S1132DC0012B07D0022B08D0002B00D008E0264BA3
S1132DD0BB6105E0254BBB6102E0254BBB6100BF35
S1132DE010E0FB78012B07D0022B08D0002B00D079
S1132DF008E01D4BBB6105E01E4BBB6102E01E4BAE
S1132E00BB6100BFFB781D4AD35C7B617B697A6838
S1132E1002FB03F33B613B69002B00D119E07B68A3
S1132E20DB00BA68D21A3B6913445A1E3B69B2FBF1
S1132E30F3F3013BFB61FB681B6803F00203002B07
S1132E4004D0FB69002B01D10123FB61FA69FB6803
S1132E501A612037BD4680BD00C0004000820400D6
S1132E6000C400400092040080841E00404B4C00CB
S1132E70809FD50040548900002D3101EC5400009E
S1132E8080B582B000AF78600B46FB707B68094A5E
S1132E90934203D07B68084A934200D100BF7A680A
S1132EA0FB78104600211A46FFF702FF0837BD469B
S1132EB080BD00BF00C0004000C4004080B582B0A7
S1132EC000AF786039607B68164A934203D07B6810
S1132ED0154A934200D100BF7B6800221A647868C7
S1132EE01249FFF7D7FE7A683B685B78002B01D064
S1132EF0002300E00123104601211A46FFF7D8FE03
S1132F003B6859683B689A683B681B7B7868FFF7A5
S1132F101BFF3B681B7878681946FFF7B1FF083739
S1132F20BD4680BD00C0004000C40040FFFF070054
S1132F3080B483B000AF0346FB7197F90730002BD0
S1132F400BDB084997F907305B09FA7902F01F0295
S1132F50012000FA02F241F823200C37BD465DF847
S1132F60047B704700E100E080B483B000AF034607
S1132F70FB7197F90730002B0CDB094997F90730EF
S1132F805B09FA7902F01F02012000FA02F26033B1
S1132F9041F823200C37BD465DF8047B704700BF21
S1132FA000E100E080B483B000AF03463960FB71F8
S1132FB097F90730002B0ADB0D4997F907303A6877
S1132FC0D2B25201D2B20B4483F800230AE0094979
S1132FD0FB7903F00F03043B3A68D2B25201D2B238
S1132FE00B441A760C37BD465DF8047B704700BF6E
S1132FF000E100E000ED00E080B485B000AF78604F
S113300039607B6803F18063FB60FB683A681A608F
S11330101437BD465DF8047B704700BF80B584B0AB
S113302000AF78601A480121FDF7F8FC7B681B7833
S11330301B06FB607B685B781B027A6892781343FB
S11330401A46FB681343FB60124AFB681360114B7A
S113305000221A620F4B0022DA620E4B00225A63DE
S11330600C4B4FF00042DA660A4B4FF0FF329A667F
S11330700920FFF779FF7B68DB7809201946FFF701
S113308091FF0920FFF754FF1037BD4680BD00BFF4
S113309000550A0000200E4080B588B000AFF860EB
S11330A0B9607A60FB68DBB21A4601239340BB61C6
S11330B04C48BB681968FA6813465B0013441B014B
S11330C00344803319604749BB685B7B1846FA6840
S11330D013465B0013441B010B44883318604149B9
S11330E0BB689B7A1A04BB68DB7A1B051A43BB686E
S11330F01B7B5B0513431846FA6813465B001344B5
S11331001B010B448033586036487B6823F003016D
S1133110FA6813465B0013441B0103449833196097
S1133120304ABB699366FEF751FC78612D492D4BFB
S1133130DA6EBB691343CB66BB681B7A002B05D0E0
S11331402849284B5A6BBB6913434B63BB685B7AB2
S1133150002B05D02349234BDA6ABB691343CB62A6
S1133160204B1B68FB61BB681B79002B08D0BB6834
S11331701B79DB431B0263F47F43FA691340FB6151
S1133180BB685B79002B06D0BB685B791B021A46CF
S1133190FB691343FB61BB689B79002B07D0BB68B9
S11331A09B79DB4363F0FF03FA691340FB61BB685F
S11331B0DB79002B05D0BB68DB791A46FB69134326
S11331C0FB61084AFB6913600748B969FFF714FFFC
S11331D0044ABB69D3637869FEF708FC2037BD460F
S11331E080BD00BF00200E4028200E4080B487B070
S11331F000AFF860B9607A60FB68114A934208D165
S1133200BB68012B05D87B681B0C1B04002B00D169
S113321000BFBB68002B02D0012B04D00AE0FB687E
S113322010337B6103E0FB6814337B6100BF7B696F
S11332307A681A601C37BD465DF8047B704700BF8E
S11332400060044080B483B000AF78600B46FB702C
S1133250FB78002B03D07B6801225A6002E07B6874
S113326002225A600C37BD465DF8047B704700BFEC
S113327080B485B000AF786039600023FB603B68A0
S11332801B7883F00103DBB2002B08D07B689B68BA
S113329003F00103002B02D07B6802225A603B68D2
S11332A05B78002B03D0FB6843F48053FB603B68DE
S11332B09B78002B03D13B68DB68002B07D0FB68AD
S11332C043F40073FB603B68DA687B681A613B680F
S11332D0DB78002B03D0FB6843F48073FB603B680E
S11332E01B79002B03D0FB6843F04003FB603B6871
S11332F05B79002B03D0FB6843F08003FB603B68E1
S11333009B799B001A46FB681343FB603B68DB799F
S11333101B011A46FB681343FB603B681B7A1A4681
S1133320FB681343FB607B68FA681A603B681B7890
S1133330002B08D07B689B6803F00103002B02D1AB
S11333407B6801225A601437BD465DF8047B7047E0
S113335080B483B000AF786039607B681B6C03F085
S11333600103002B00D006E000BF7B685A6C3B6869
S11333701340002BF9D10C37BD465DF8047B704730
S113338080B586B000AFF860B9607A60BB68002B86
S11333900BD1FB68124A934206D1124B7B617869C8
S11333A0FDF7A2FBB86000E016E0BB685A017B6839
S11333B0B2FBF3F33B613B69203B3B613B69DB00C0
S11333C03B613A69084B13403B61F8680421FFF7FD
S11333D0BFFFFB683A69DA601837BD4680BD00BF9D
S11333E000A0044090171A00F8FF010080B584B0D3
S11333F000AF78600B46FB70FB78DB43FB60FB6837
S113340003F00503FB60FB685B00FB60FB78FA6874
S11334101343FB6078680221FFF79AFF7B68FA6820
S11334205A601037BD4680BD80B483B000AF786069
S11334300B46FB70FB78002B08D000BF7B685B6CED
S1133440002BFBD17B6801221A6402E07B68002216
S11334501A640C37BD465DF8047B704780B582B0B2
S113346000AF7860396078680221FFF771FF7B68EC
S11334700A225A6078680121FFF7D6FF7B681B682F
S113348023F01C033A68127B13433A68527B1343BC
S11334903A68927B1A437B681A603B685A683B68B7
S11334A09B68786811461A46FFF76AFF3B681B78E9
S11334B01A467B685A6078680021FFF7B5FF083721
S11334C0BD4680BD80B483B000AF0346FB7197F95D
S11334D00730002B0BDB084997F907305B09FA79B1
S11334E002F01F02012000FA02F241F823200C37F7
S11334F0BD465DF8047B704700E100E080B400AF96
S1133500054A054B1B6923F00403136130BFBD4614
S11335105DF8047B704700BF00ED00E080B483B029
S113352000AF174B02225A60164B02225A60144B0A
S113353001225A61134B5B6A7B60134B1B78DBB22D
S11335401946124A7B6842F821300F4B1B78DBB2D4
S11335501A460F4B53F822207B689A4207D20A4B33
S11335601B78DBB219460A4A7B6842F82130094BC2
S113357001221A700C37BD465DF8047B704700BF0A
S11335800080014000840140B8000020BC000020FD
S1133590CC000020B900002080B485B000AF034601
S11335A0FB71FB790D4A52F82330FB60FB790B4A1F
S11335B052F823309B08FA68D31AFB60FB79084A57
S11335C052F82320FB689A4201D2012300E0002331
S11335D018461437BD465DF8047B7047CC000020C4
S11335E0BC00002080B582B000AF0346FB71FB79BC
S11335F04FF080401946FCF73BFF0E4B00225A6205
S11336000D4B00225A620D4B00221A70094B012205
S11336105A60094B01225A6001E0FFF76FFF074B24
S11336201B78DBB283F00103DBB2002BF5D1083742
S1133630BD4680BD0080014000840140B9000020E7
S113364080B500AF4FF08040FCF748FF0E4B0022DE
S11336501A700FE00C4B1B78DBB21A460B4B9B5CC9
S11336601846FFF7BFFF084B1B78DBB20133DAB211
S1133670054B1A70044B1B78DBB2032BEAD94FF0CD
S11336808040FCF711FF80BDB8000020F05400001A
S1133690B0B586B000AF214B3C461D460FCD0FC4DC
S11336A095E8030084E803001D480121FDF7B6F9FD
S11336B01C480121FDF7B2F91B480121FDF7AEF9C1
S11336C01A480121FDF7AAF919480121FDF7A6F9C5
S11336D0184B4FF010621A60164B0A22DA61154B30
S11336E001229A61134B00225A62134B134A1A6047
S11336F0114B4FF6FF72DA610F4B114A1A67114BE7
S1133700114A1A653B464FF080401946FCF770FE9B
S11337100B20FFF7D7FE1837BD46B0BDF4540000A8
S113372040410500000204000012040000A204004D
S113373000450A0000800140008401400000010AA5
S11337400100002A00600E400003100080B500AFA5
S11337502F480421FDF7DCFC2D480121FDF75EF91B
S1133760012000210022FDF721FF05200021002275
S1133770FDF71CFF002001210122FDF717FF25485A
S11337800221FDF7C5FC012000210022FDF744FEC3
S113379020480121FDF742F91F480121FDF73EF9B8
S11337A01E480121FDF73AF91D480121FDF736F9BC
S11337B017480121FDF732F91A480121FDF72EF9C6
S11337C019480221FDF7A4FC18480121FDF726F948
S11337D0032001210122FDF7E9FE11200521FDF757
S11337E097FC0B480521FDF793FC11480121FDF7D7
S11337F015F9052001210122FDF7D8FE0D480A2103
S1133800FDF786FC0B480121FDF708F980BD00BFD8
S11338104041050002001E0000250A0000350A0090
S113382080061600008204000300200090171A008E
S113383000550A0000C2040080B483B000AF034600
S1133840FB7197F90730002B0BDB084997F9073018
S11338505B09FA7902F01F02012000FA02F241F832
S113386023200C37BD465DF8047B704700E100E07F
S113387080B487B000AFF860B9607A60FB6803F188
S11338800473DA00BB6813449B007B617B697A682C
S11338901A601C37BD465DF8047B704780B582B062
S11338A000AF0346FB71FB79034800211A46FFF77A
S11338B0DFFF0837BD4680BD00E0014080B582B01F
S11338C000AF01233B7000237B700123BB700323F3
S11338D0FB7000233B710A237B713B461846FEF7BD
S11338E0B9F82020FFF7A8FF054B01229A61044B89
S11338F00122DA610120FFF7D1FF0837BD4680BD00
S113390000E0014080B582B000AFFEF74FF80C4BE9
S11339101A690B4BDB6913407B60094A7B6893612E
S11339207B6803F00103002B05D0064B1B6843F0B2
S11339302003044A1360FEF741F80837BD4680BDF2
S113394000E00140DC00002080B483B000AF0346F7
S1133950FB7197F90730002B0BDB084997F9073007
S11339605B09FA7902F01F02012000FA02F241F821
S113397023200C37BD465DF8047B704700E100E06E
S113398080B582B000AF00233B7100237B7100231C
S1133990BB710323FB713B1D1846FFF73FFB092056
S11339A0FFF7D2FF0548042100F06CF80020044919
S11339B0044AFFF771FB0837BD4680BDE0000020D4
S11339C0200100201001002090B486B000AF786080
S11339D039603B689BB2013B9BB2C3F30A0398B2C4
S11339E07968244B00221A60043300221A600433DD
S11339F000221A60043300221A6004331D4AC0F303
S1133A000A031801136823F4FF4323F070030343EC
S1133A101360184B1A6842F480121A60154B1A6826
S1133A2042F040521A60134B5960124B124A9A608A
S1133A30124BBB6000233B7300237B730023BB73D7
S1133A400023FB7300233B7400237B740023BB74AB
S1133A500023FB7400233B7500237B75084B1C4635
S1133A6007F108030FCB84E80F001837BD4690BC5C
S1133A70704700BF0001002028A00440010010008E
S1133A803001002090B486B000AF786039603B68A4
S1133A909BB2013B9BB2C3F30A0398B27968244BEF
S1133AA000221A60043300221A60043300221A60D0
S1133AB0043300221A6004331D4AC0F30A031801B8
S1133AC0136823F4FF4323F0700303431360184B7C
S1133AD01A6842F480121A60154B1A6842F0407258
S1133AE01A60134B134A5A60114B99604FF48013B8
S1133AF0BB6000233B7300237B730023BB73002351
S1133B00FB7300233B7400237B740023BB740023EA
S1133B10FB7400233B7500237B75074B1C4607F1A0
S1133B2008030FCB84E80F001837BD4690BC7047DC
S1133B30100100201CA004402001002080B582B0A8
S1133B4000AFFDF733FF00BF134B5B6C002BFBD1C1
S1133B50124B1A6E114BDB6E13407B600F4A7B686D
S1133B6093667B6803F00203002B10D00A4A0A4BC9
S1133B701B6823F40053136000BF074B5B6C002BDE
S1133B80FBD1054A044B9B6B43F001039363FDF7A0
S1133B9015FF0837BD4680BD00A0044000200E403C
S1133BA080B485B000AF786039607B6803F18063CE
S1133BB0FB60FB683A681A601437BD465DF8047B05
S1133BC0704700BF80B582B000AF03463960FB7117
S1133BD0FB79002B1CD0FB79012B19D0FB79022B2C
S1133BE016D0FB79032B13D0FB79042B10D0FB796F
S1133BF0052B0DD0FB79062B0AD0FB79072B07D0B8
S1133C00FB79082B04D0FB79092B01D0FB790A2B13
S1133C10FA7913465B0013441B010C3303F1804310
S1133C2003F520433A68012101FA02F218461146CD
S1133C30FFF7B6FF0837BD4680BD00BF80B500AFB3
S1133C4005204FF00111FEF74FFF05200421042247
S1133C500023FEF789FF05204FF00111FEF744FF12
S1133C600520052104220023FEF77EFF02200B21FC
S1133C7000220023FEF778FF02200A2100220023FD
S1133C80FEF772FF01200A2104220023FEF76CFFD5
S1133C9001200A21FFF796FF03200B2101220023B4
S1133CA0FEF762FF03200A2104220123FEF75CFFD2
S1133CB003204FF00111FEF717FF80BD80B483B0DD
S1133CC000AF0346FB7197F90730002B0CDB094961
S1133CD097F907305B09FA7902F01F02012000FA14
S1133CE002F2603341F823200C37BD465DF8047BB3
S1133CF0704700BF00E100E080B485B000AF786099
S1133D0039607B6803F1C063FB60FB683A681A6042
S1133D101437BD465DF8047B704700BF80B485B09E
S1133D2000AF786039607B6803F18063FB60FB68F7
S1133D303A681A601437BD465DF8047B704700BFCB
S1133D4080B582B000AF03463960FB71FB79002B6C
S1133D501CD0FB79012B19D0FB79022B16D0FB79EF
S1133D60032B13D0FB79042B10D0FB79052B0DD03A
S1133D70FB79062B0AD0FB79072B07D0FB79082B9C
S1133D8004D0FB79092B01D0FB790A2BFA7913466D
S1133D905B0013441B010C3303F1804303F5204300
S1133DA03A68012101FA02F218461146FFF7B6FFFC
S1133DB00837BD4680BD00BF80B582B000AF034662
S1133DC03960FB71FB79002B1CD0FB79012B19D0D6
S1133DD0FB79022B16D0FB79032B13D0FB79042B30
S1133DE010D0FB79052B0DD0FB79062B0AD0FB797B
S1133DF0072B07D0FB79082B04D0FB79092B01D0C2
S1133E00FB790A2BFA7913465B0013441B010C332C
S1133E1003F1804303F520433A68012101FA02F2D9
S1133E2018461146FFF768FF0837BD4680BD00BF3E
S1133E3080B582B000AF7860786801F035F802464A
S1133E400B46104619460DA3D3E9002301F080F870
S1133E5002460B46104619464FF00002064B00F08E
S1133E60C5FE02460B461046194601F083FA034686
S1133E7018460837BD4680BD00004040CDCCCCCCB0
S1133E80CCCCFC3F80B489B000AFF860B960134675
S1133E90FB71D7ED037AF5EEC07AF1EE10FA0BD58B
S1133EA02D23FB76BB68FA7E1A70D7ED037AF1EE08
S1133EB0677AC7ED037A02E0BB682B221A70D7ED4C
S1133EC0037AB2EE047A67EE877AFDEEE77A17EEAC
S1133ED0903AFB61FB69B3F57A7F0ED3FB693B4AE9
S1133EE0A2FB03239B097B617B6930337B61BB6845
S1133EF001337A69D2B21A7003E0BB68013320221D
S1133F001A70FB69632B19D9FB69304AA2FB0312AF
S1133F1092094FF47A7101FB02F29B1AFB61FB696F
S1133F202B4AA2FB03235B097B617B6930337B61F2
S1133F30BB6802337A69D2B21A7003E0BB680233F9
S1133F4020221A70FB69092B17D9FB69204AA2FBAE
S1133F5003125209642101FB02F29B1AFB61FB6903
S1133F601C4AA2FB0323DB087B617B6930337B6142
S1133F70BB6803337A69D2B21A70BB6804332E2249
S1133F801A70FA69134BA3FB0213D9080B469B0062
S1133F900B445B00D31AFB61FB693033FB61BB68E4
S1133FA00533FA69D2B21A70FB79002B04D0BB68CE
S1133FB0063343221A7003E0BB68063346221A70A4
S1133FC000BF2437BD465DF8047B7047D34D6210B3
S1133FD01F85EB51CDCCCCCC80B582B000AF304B3B
S1133FE020225A602E4B80225A6001200A21FFF7BA
S1133FF0E3FE2B4B01225A60294B8022DA6200BF78
S1134000274B5B6B03F04003002BF9D0244B402279
S1134010DA63234BE322DA6200BF214B5B6B03F0CC
S11340204003002BF9D01E4B4022DA631C4B0122C3
S11340305A601B4B8122DA6200BF194B5B6B03F0A1
S11340404003002BF9D0164B4022DA6300BF144B17
S11340505B6B03F02003002BF9D0114BDB69FB8071
S1134060FB881B02FB800E4B04225A6000BF0C4BE2
S11340705B6B03F02003002BF9D0094BDB69BB8099
S1134080074B08225A60064B02225A60FA88BB8802
S11340901343FB80FB8818460837BD4680BD00BF2C
S11340A000C000400000000080B584B000AF0346AB
S11340B0FB80FB88184600F0E5FE02460B461046DE
S11340C0194616A3D3E9002300F042FF02460B462B
S11340D0104619464FF000020F4B01F063F80246F8
S11340E00B46104619460AA3D3E9002300F07CFDD1
S11340F002460B461046194601F03CF90346FB60A4
S1134100FB6818461037BD4680BD00BFAFF3008082
S1134110CDCCCCCCCC6C47400000F040D7A3703D54
S11341200AF7654080B586B000AF01233B70254B8C
S1134130BB6001237B7000237B6001233B7300235E
S11341407B610AE002200B21FFF7FAFD02200B211C
S1134150FFF732FE7B6901337B617B69082BF1DD5C
S1134160194B9B6803F00103002B02D0164B20224D
S11341705A60154B40F60F729A64134B03225A642B
S11341801120FFF79BFD104BC022DA630E4A0E4B41
S11341901B6C43F0E0031364032000F0CDFC002308
S11341A03B6102E03B6901333B613B69074A93424F
S11341B0F8DD3B4604481946FEF780FE1837BD4635
S11341C080BD00BFDDFB050000C000403F420F0082
S11341D080B483B000AF054B5B6B7B60034A7B68A4
S11341E0D3630C37BD465DF8047B704700C00040C4
S11341F080B483B000AF0346FB7197F90730002BFE
S11342000BDB084997F907305B09FA7902F01F02C2
S1134210012000FA02F241F823200C37BD465DF874
S1134220047B704700E100E080B485B000AF7860A3
S113423039607B6803F1C063FB60FB683A681A600D
S11342401437BD465DF8047B704700BF80B485B069
S113425000AF786039607B6803F18063FB60FB68C2
S11342603A681A601437BD465DF8047B704700BF96
S113427080B582B000AF03463960FB71FB79002B37
S11342801CD0FB79012B19D0FB79022B16D0FB79BA
S1134290032B13D0FB79042B10D0FB79052B0DD005
S11342A0FB79062B0AD0FB79072B07D0FB79082B67
S11342B004D0FB79092B01D0FB790A2BFA79134638
S11342C05B0013441B010C3303F1804303F52043CB
S11342D03A68012101FA02F218461146FFF7B6FFC7
S11342E00837BD4680BD00BF80B582B000AF03462D
S11342F03960FB71FB79002B1CD0FB79012B19D0A1
S1134300FB79022B16D0FB79032B13D0FB79042BFA
S113431010D0FB79052B0DD0FB79062B0AD0FB7945
S1134320072B07D0FB79082B04D0FB79092B01D08C
S1134330FB790A2BFA7913465B0013441B010C33F7
S113434003F1804303F520433A68012101FA02F2A4
S113435018461146FFF768FF0837BD4680BD00BF09
S113436080B582B000AF00237B600AE002200B21FD
S1134370FFF77EFF02200B21FFF7B6FF7B680133B6
S11343807B607B68082BF1DD054B9B6803F0010320
S1134390002B02D0024B20225A600837BD4680BD54
S11343A000C0004080B58AB000AF4FF400433B62C8
S11343B03A6A13465B001344013B7B620023FB61B2
S11343C00123BB610EE0FB690133FB613B6A5B08BF
S11343D03B623A6A13465B001344013B7B62BB6950
S11343E05B00BB617B6AB3F5803FECD23A6A13464B
S11343F09B0013441B011A46204BA3FB02239B0979
S11344007A6AD31A7B61BB69012B03D91C48B96949
S1134410FCF772FC0023FB710123BB7100237B7149
S113442000233B7100233B7200237B7200233B7308
S11344300023BB720023FB723B1D12481946FEF792
S113444017FF104800217A6AFEF7D0FE0D480121BB
S11344507A69FEF7CBFE0B4B03229A62094A094B99
S1134460DB6A43F00303D362032000F065FB1B20E7
S1134470FFF7BEFE2837BD4680BD00BFD34D621096
S1134480800616000060044080B582B000AFFDF7DE
S11344908DFA104B1B6A7B600E4A7B6893627B68C3
S11344A003F00103002B05D00B4B1B6843F00403FE
S11344B0094A13607B6803F00203002B05D0064B06
S11344C01B6843F00803044A1360FDF777FA0837C2
S11344D0BD4680BD00600440DC00002080B483B091
S11344E000AF0346FB7197F90730002B0BDB08493B
S11344F097F907305B09FA7902F01F02012000FAEC
S113450002F241F823200C37BD465DF8047B704766
S113451000E100E080B584B000AF4FF41653BB60F7
S113452000237B6005233B7000233B7300237B73D4
S11345300023BB733B461C481946FEF78FFF00BFA0
S1134540194B5B6C002BFBD1174B03225A65164B9E
S113455041F212229A65144B4FF480625A63124B53
S11345604FF480629A63104B10225A6000BF0E4BC6
S11345705B6C002BFBD10C4B4FF488521A6000BFCC
S1134580094B5B6C002BFBD1074B3F221A61064B96
S113459023225A6104480521FEF728FF1620FFF75D
S11345A09DFF1037BD4680BD00A0044080B582B099
S11345B000AFFDF7FBF91C4BDA6A1B4B9B6B1340F6
S11345C07B60194A7B6853637B6803F48063002B28
S11345D012D0154B10225A6000BF134B5B6C002B9A
S11345E0FBD100201149124AFEF756FD114B1B68FE
S11345F043F010030F4A13607B6803F00203002B9F
S113460004D17B6803F00103002B08D0064A064B53
S11346109B6B23F003039363032000F0A3FAFDF7DD
S1134620CDF90837BD4680BD00A00440200100201C
S113463010010020DC00002080B400AF044BDB6CD0
S11346401B0EDBB21846BD465DF8047B704700BF05
S1134650B081E00F80B485B000AF786039607B68CA
S113466003F1C063FB60FB683A681A601437BD4607
S11346705DF8047B704700BF80B485B000AF7860FC
S113468039607B6803F18063FB60FB683A681A60F9
S11346901437BD465DF8047B704700BF80B582B017
S11346A000AF03463960FB71FB79002B1CD0FB790A
S11346B0012B19D0FB79022B16D0FB79032B13D0D5
S11346C0FB79042B10D0FB79052B0DD0FB79062B3D
S11346D00AD0FB79072B07D0FB79082B04D0FB7990
S11346E0092B01D0FB790A2BFA7913465B0013449A
S11346F01B010C3303F1804303F520433A68012185
S113470001FA02F218461146FFF7B6FF0837BD4614
S113471080BD00BF80B582B000AF03463960FB7135
S1134720FB79002B1CD0FB79012B19D0FB79022BD0
S113473016D0FB79032B13D0FB79042B10D0FB7913
S1134740052B0DD0FB79062B0AD0FB79072B07D05C
S1134750FB79082B04D0FB79092B01D0FB790A2BB8
S1134760FA7913465B0013441B010C3303F18043B5
S113477003F520433A68012101FA02F21846114672
S1134780FFF768FF0837BD4680BD00BF80B582B023
S113479000AF154B01225A64FFF74EFF0346FB712D
S11347A0FB79002B0CD1114B4AF6E8521A60104ADF
S11347B00F4B1B6843F0040313600C4B00221A6078
S11347C0FB79012B05D80B4A0A4B1B6843F40053B1
S11347D01360094A084B1B6A23F4441343F48813F7
S11347E013620837BD4680BD00000E4090310E4074
S11347F098310E4064310E4000400E40B0B590B088
S113480000AF012387F83F30032000F095F9B74B40
S113481007F11C04186859689A68DB680FC4B44B24
S113482007F108041D4628686968AA68EB680FC484
S11348302B8A2380FFF7AAFF00233B7100237B719F
S113484007F11C031846FDF709FE02237B713B1D8B
S11348501846FDF783FB07F108031846FCF734FEFE
S113486011200421FCF754FC032000210022FCF752
S11348709DFEFEF76BFFFFF7E1F9FFF753FC9D4840
S11348800121FEF7FDFAFFF78DFD9B480121FEF79C
S1134890D9FCFFF73FFEFFF773F8FEF7F9FEFFF7C9
S11348A00DF8FDF78BF8954B1B68002B01D100F038
S11348B075F9924B1B6803F00403002B10D0012000
S11348C00A2104220123FEF74FF98C4B1B6823F0C5
S11348D004038A4A136000BF894B5B6C002BFBD135
S11348E0864B1B6803F00803002B68D0032000F0FC
S11348F023F902200B2108220123FEF735F90220B7
S11349000A2108220123FEF72FF9FFF729FDFFF7FB
S113491063FB0346FB86FB8E1846FFF7C5FBB863B3
S113492097F83F3083F00103DBB2002B03D0B86B60
S1134930FFF77EFAB86307F12C0297F83F30B86BA3
S113494011461A46FFF79EFA02200B21002200238B
S1134950FEF70AF902200A2100220023FEF704F9D7
S113496001200A2104220023FEF7FEF8032000F0B0
S1134970F9F807F12C03184600F08EFD03461A4699
S113498007F12C0318461146FFF71EF85C4A5C4BEE
S11349901B6843F40053136000BF594B5B6C002B3E
S11349A0FBD1032000F0C8F801205649564AFEF70F
S11349B073FB524B1B6823F00803504A13604F4BA0
S11349C01B6803F01003002B29D0504B5B78DBB23B
S11349D0642B04D04D4B5B78DBB2442B19D14B4B89
S11349E09B78DBB2662B04D0484B9B78DBB2462B1A
S11349F002D1002387F83F30444B9B78DBB2632B12
S1134A0004D0424B9B78DBB2632B02D1012387F89D
S1134A103F303A4B1B6823F01003384A1360374B7E
S1134A201B6803F02003002B5FD0FEF709FE002073
S1134A30FEF7B2FD0346002B4ED00320FEF7ACFD7B
S1134A40034683F00103DBB2002B45D0304B1B78C7
S1134A50DBB283F00103DBB2002B3CD02C4B0122F0
S1134A601A702C4B1B78DBB2002B18D0294B002278
S1134A701A7021480021FEF7E5FB01200A21FFF707
S1134A800DFE00BF1E4B5B6C002BFBD102200B21E3
S1134A90FFF704FE02200A21FFF700FE1BE01D4B76
S1134AA001221A70144B0022DA6013480121FEF728
S1134AB0C9FB01200A21FFF72DFE00BF104B5B6CE0
S1134AC0002BFBD102200B21FFF724FE02200A2138
S1134AD0FFF720FE03E002E00D4B00221A70074BA3
S1134AE01B6823F02003054A1360DCE60C55000024
S1134AF01C55000000C0004000600440DC000020A1
S1134B0000A004403001002000010020E00000204B
S1134B10E50000201400002080B400AF054A054BD6
S1134B201B6923F00403136130BFBD465DF8047BA9
S1134B30704700BF00ED00E080B582B000AF786040
S1134B40FCF734FF064A7B6852F823305A1C0449A8
S1134B507B6841F82320FCF731FF0837BD4680BD50
S1134B60E800002080B582B000AF7860FCF71EFF3B
S1134B70094A7B6852F82330002B08D0064A7B6828
S1134B8052F823305A1E04497B6841F82320FCF76D
S1134B9015FF0837BD4680BDE800002080B500AF92
S1134BA00E4B1B68002B00D017E00C4B5B68002BEE
S1134BB000D012E0094B9B68002B02D0FFF7ACFF3A
S1134BC00AE0064BDB68002B03D00120FDF7F4F864
S1134BD002E00120FDF714F900BF80BDE8000020C9
S1134BE081F0004102E000BF83F0004330B54FEA9A
S1134BF041044FEA430594EA050F08BF90EA020F07
S1134C001FBF54EA000C55EA020C7FEA645C7FEA99
S1134C10655C00F0E2804FEA5454D4EB5555B8BFBC
S1134C206D420CDD2C4480EA020281EA030382EA2D
S1134C30000083EA010180EA020281EA0303362DBF
S1134C4088BF30BD11F0004F4FEA01314FF4801C92
S1134C504CEA113102D0404261EB410113F0004FA4
S1134C604FEA03334CEA133302D0524263EB43035B
S1134C7094EA050F00F0A780A4F10104D5F1200EF9
S1134C800DDB02FA0EFC22FA05F2801841F1000154
S1134C9003FA0EF2801843FA05F359410EE0A5F128
S1134CA020050EF1200E012A03FA0EFC28BF4CF059
S1134CB0020C43FA05F3C01851EBE37101F000450F
S1134CC007D54FF0000EDCF1000C7EEB00006EEB1C
S1134CD00101B1F5801F1BD3B1F5001F0CD34908A6
S1134CE05FEA30004FEA3C0C04F101044FEA4452FD
S1134CF012F5800F80F09A80BCF1004F08BF5FEA84
S1134D00500C50F1000041EB045141EA050130BD63
S1134D105FEA4C0C404141EB010111F4801FA4F106
S1134D200104E9D191F0000F04BF01460020B1FA5B
S1134D3081F308BF2033A3F10B03B3F120020CDA93
S1134D400C3208DD02F1140CC2F10C0201FA0CF071
S1134D5021FA02F10CE002F11402D8BFC2F1200CD6
S1134D6001FA02F120FA0CFCDCBF41EA0C0190408C
S1134D70E41AA2BF01EB0451294330BD6FEA0404D5
S1134D801F3C1CDA0C340EDC04F11404C4F12002C0
S1134D9020FA04F001FA02F340EA030021FA04F3D2
S1134DA045EA030130BDC4F10C04C4F1200220FA29
S1134DB002F001FA04F340EA0300294630BD21FA67
S1134DC004F0294630BD94F0000F83F4801306BF2D
S1134DD081F480110134013D4EE77FEA645C18BF21
S1134DE07FEA655C29D094EA050F08BF90EA020FB8
S1134DF005D054EA000C04BF1946104630BD91EAB0
S1134E00030F1EBF0021002030BD5FEA545C05D1B2
S1134E104000494128BF41F0004130BD14F58004F1
S1134E203CBF01F5801130BD01F0004545F0FE4165
S1134E3041F470014FF0000030BD7FEA645C1ABF9A
S1134E40194610467FEA655C1CBF0B46024650EAD1
S1134E50013406BF52EA033591EA030F41F40021FD
S1134E6030BD00BF90F0000F04BF0021704730B583
S1134E704FF4806404F132044FF000054FF0000158
S1134E8050E700BF90F0000F04BF0021704730B519
S1134E904FF4806404F1320410F0004548BF4042EE
S1134EA04FF000013EE700BF42004FEAE2014FEA43
S1134EB031014FEA02701FBF12F07F4393F07F4F1E
S1134EC081F06051704792F0000F14BF93F07F4F50
S1134ED0704730B54FF4607401F0004521F0004193
S1134EE020E700BF50EA010208BF704730B54FF019
S1134EF000050AE050EA010208BF704730B511F01E
S1134F00004502D5404261EB41014FF4806404F155
S1134F1032045FEA915C3FF4DCAE4FF003025FEAD7
S1134F20DC0C18BF03325FEADC0C18BF033202EB5F
S1134F30DC02C2F1200300FA03FC20FA02F001FAB9
S1134F4003FE40EA0E0021FA02F11444C1E600BF58
S1134F5070B54FF0FF0C4CF4E06C1CEA11541DBF0B
S1134F601CEA135594EA0C0F95EA0C0F00F0DEF8D6
S1134F702C4481EA030621EA4C5123EA4C5350EABB
S1134F80013518BF52EA033541F4801143F480130C
S1134F9038D0A0FB02CE4FF00005E1FB02E506F09D
S1134FA00042E0FB03E54FF00006E1FB03569CF0F2
S1134FB0000F18BF4EF0010EA4F1FF04B6F5007FF8
S1134FC064F5407404D25FEA4E0E6D4146EB06066A
S1134FD042EAC62141EA55514FEAC52040EA5E50F3
S1134FE04FEACE2EB4F1FD0C88BFBCF5E06F1ED89D
S1134FF0BEF1004F08BF5FEA500E50F1000041EBD4
S1135000045170BD06F0004646EA010140EA020080
S113501081EA0301B4EB5C04C2BFD4EB0C0541EAA2
S1135020045170BD41F480114FF0000E013C00F3B7
S1135030AB8014F1360FDEBF002001F0004170BDDB
S1135040C4F10004203C35DA0C341BDC04F11404F4
S1135050C4F1200500FA05F320FA04F001FA05F280
S113506040EA020001F0004221F0004110EBD3704D
S113507021FA04F642EB06015EEA430E08BF20EA79
S1135080D37070BDC4F10C04C4F1200500FA04F31C
S113509020FA05F001FA04F240EA020001F00041AE
S11350A010EBD37041F100015EEA430E08BF20EA21
S11350B0D37070BDC4F1200500FA05F24EEA020E69
S11350C020FA04F301FA05F243EA020321FA04F098
S11350D001F0004121FA04F220EA020000EBD3704F
S11350E05EEA430E08BF20EAD37070BD94F0000F4F
S11350F00FD101F00046400041EB010111F4801F83
S113510008BF013CF7D041EA060195F0000F18BF33
S1135110704703F00046520043EB030313F4801F6F
S113512008BF013DF7D043EA0603704794EA0C0F29
S11351300CEA135518BF95EA0C0F0CD050EA41063F
S113514018BF52EA4306D1D181EA030101F00041BC
S11351504FF0000070BD50EA410606BF10461946E4
S113516052EA430619D094EA0C0F02D150EA0136F0
S113517013D195EA0C0F05D152EA03361CBF104631
S113518019460AD181EA030101F0004141F0FE41D0
S113519041F470014FF0000070BD41F0FE4141F454
S11351A0780170BD70B54FF0FF0C4CF4E06C1CEA54
S11351B011541DBF1CEA135594EA0C0F95EA0C0F09
S11351C000F0A7F8A4EB050481EA030E52EA0335C4
S11351D04FEA013100F088804FEA03334FF08055E5
S11351E045EA131343EA12634FEA022245EA111512
S11351F045EA10654FEA00260EF000419D4208BFC3
S1135200964244F1FD0404F5407402D25B084FEA6F
S11352103202B61A65EB03055B084FEA32024FF41B
S113522080104FF4002CB6EB020E75EB030E22BF78
S1135230B61A754640EA0C005B084FEA3202B6EB38
S1135240020E75EB030E22BFB61A754640EA5C00E7
S11352505B084FEA3202B6EB020E75EB030E22BF77
S1135260B61A754640EA9C005B084FEA3202B6EB78
S1135270020E75EB030E22BFB61A754640EADC0037
S113528055EA060E18D04FEA051545EA16754FEA99
S113529006164FEAC30343EA52734FEAC2025FEAB7
S11352A01C1CC0D111F4801F0BD141EA00014FF046
S11352B000004FF0004CB6E711F4801F04BF014317
S11352C00020B4F1FD0C88BFBCF5E06F3FF6AFAE33
S11352D0B5EB030C04BFB6EB020C5FEA500C50F1C3
S11352E0000041EB045170BD0EF0004E4EEA113146
S11352F014EB5C04C2BFD4EB0C0541EA045170BD4D
S113530041F480114FF0000E013C90E645EA060E90
S11353108DE60CEA135594EA0C0F08BF95EA0C0FBE
S11353203FF43BAF94EA0C0F0AD150EA01347FF406
S113533034AF95EA0C0F7FF425AF104619462CE7DD
S113534095EA0C0F06D152EA03353FF4FDAE104640
S1135350194622E750EA410618BF52EA43067FF491
S1135360C5AE50EA41047FF40DAF52EA43057FF421
S1135370EBAE12E74FEA4102B2F1E04324BFB3F5CA
S1135380001CDCF1FE5C0DD901F0004C4FEAC002B8
S11353904CEA5070B2F1004F40EB830008BF20F09C
S11353A00100704711F0804F21D113F13872BCBF56
S11353B001F00040704741F480114FEA5252C2F1AB
S11353C01802C2F1200C10FA0CF320FA02F018BFF4
S11353D040F001004FEAC1234FEAD32303FA0CFC47
S11353E040EA0C0023FA02F34FEA4303CCE77FEAD6
S11353F0625307D150EA01331EBF4FF0FE4040F420
S11354004000704701F0004040F0FE4040F40000CE
S1135410704700BF08B5074B044613B10021AFF332
S11354200080054B1868836A03B19847204600F052
S11354303BF800BF000000003055000070B50E4B73
S11354400E4CE41AA41000251E46A54204D056F8BA
S1135450253098470135F8E700F028F8084C094B47
S1135460E41AA41000251E46A54204D056F825309F
S113547098470135F8E770BD7800002078000020D7
S11354807C0000207800002002440346934202D0AE
S113549003F8011BFAE77047034613F8012B002AAF
S11354A0FBD1181A01387047FEE700BFF8B500BFFA
S11354B0F8BC08BC9E467047F8B500BFF8BC08BCF1
S11354C09E46704740787D0100000000005A620249
S11354D000010000C0CF6A0002000000809FD500D8
S11354E002010000002D3101020200000809110828
S11354F020412243000000002000000008080500AD
S11355003000000010000000010000000002080745
S113551005000A00C8000000FFFF010001000000B0
S1135520A00068010A200706020A040700004300DD
S10B5530180000200000000037
S10B553830ACFF7F010000000C
S1135540005A620200800000C0EA2101C0EA210181
S1135550C0EA21010100000000000000000000007A
S11355600000000000000000000000000000000037
S113557000000000000000002E55000000000000A4
S11355800000000000000000000000000000000017
S11355900000000000000000000000000000000007
S11355A000000000000000000000000000000000F7
S11355B00000000000000000310100000D010000A7
S10755C000000000E3
S90301DD1E
